:020000040800F2
:1000000000000220C92300088508000887080008AE
:10001000890800088B0800088D080008000000000F
:10002000000000000000000000000000192400088B
:100030008F08000800000000BD02000869020008E7
:10004000192400081924000819240008192400089C
:10005000192400081924000819240008192400088C
:10006000192400081924000819240008192400087C
:10007000192400081924000819240008192400086C
:10008000192400081924000819240008192400085C
:10009000192400081924000819240008192400084C
:1000A000192400081924000819240008192400083C
:1000B000192400081924000819240008192400082C
:1000C000192400081924000819240008192400081C
:1000D000192400081924000819240008192400080C
:1000E00019240008192400081924000819240008FC
:1000F00019240008192400081924000819240008EC
:1001000019240008192400081924000819240008DB
:10011000192400081924000891080008192400086F
:1001200019240008192400081924000819240008BB
:100130001924000800000000000000001924000835
:10014000192400081924000819240008192400089B
:10015000192400081924000819240008192400088B
:10016000192400081924000819240008192400087B
:1001700019240008192400081924000800000000B0
:10018000000000001924000800000000000000002A
:1001900019240008000000000000000019240008D5
:1001A000000000000000000000000000192400080A
:1001B000192400081924000819240008192400082B
:0401C00019240008F6
:1001D00010B5054C237833B9044B13B10448AFF381
:1001E00000800123237010BD1000002000000000DB
:1001F0007424000808B5034B1BB103490348AFF34F
:10020000008008BD000000001400002074240008D5
:1002100072B64FF0E0201949C0F8081D1848174978
:10022000096801601748016841F0010101604FF061
:10023000E020154941614FF0070101614FF00001D5
:10024000C0F8181D4FF07F41C0F81C1D0F49C0F8C1
:10025000201D7047FFF7FEBFFFF7FEBFFFF7FEBF91
:1002600001B5BDE80140704701B500F091F8BDE867
:1002700001407047FFF7FEBFFFF7FEBF0000000818
:10028000340A0020001000E03FD10C000000FF40C5
:100290004FF000002A4A1060EFF3148020F00400B1
:1002A00080F3148862B64FF080504FF0E021C1F81F
:1002B000040DBFF34F8FBFF36F8FFEE72148224A33
:1002C0004FF00003016891B10360EFF3098C2CE952
:1002D000F00F1EF0100F01D12CED108A1B4C4CF8C2
:1002E00004ED2568C1F808C00DB18D61236072B6B8
:1002F0001168B1B1016062B64F68144C8D6907F1A5
:1003000001074F602560D1F808C05CF804EB1EF0CF
:10031000100F01D1BCEC108ABCE8F00F8CF30988F7
:10032000704772B61168016009B962B6F9E74FF01B
:1003300000674FF0E028C8F8047D62B6DCE770473C
:10034000AC0900209C090020A0090020980F002083
:10035000026922F00702A2F144026FF00203136067
:100360004FF0000353609360D36013615361936156
:10037000D361136253629362D362136353634FF08A
:10038000FF339363D1634FF08073136482607047CF
:100390002249086800F101000860214B1A683AB14F
:1003A000A2F101021A601AB91E4B4FF00100186049
:1003B0001D490868026822B11C4B4FF001021A6007
:1003C00008E000F104001A4B1A68904201D1194B61
:1003D00018680860134B1A6812B914490868D0B13C
:1003E0002DE901401149086808B101F055FE0D4B97
:1003F0001A6872B101F0FAFC0F48016849B90F4858
:1004000001680F4A13680F484FF08052994200D09C
:100410000260BDE80140BFF34F8F7047E40A00203F
:10042000980F0020480A0020400A0020440A0020BB
:10043000D00A0020D40A0020AC0900209C0900202A
:10044000A009002004ED00E053B94AB9002908BF13
:1004500000281CBF4FF0FF314FF0FF3000F074B99F
:10046000ADF1080C6DE904CE00F006F8DDF804E00B
:10047000DDE9022304B070472DE9F047089D0446EA
:100480008E46002B4DD18A42944669D9B2FA82F247
:1004900052B101FA02F3C2F1200120FA01F10CFA83
:1004A00002FC41EA030E94404FEA1C48210CBEFBBB
:1004B000F8F61FFA8CF708FB16E341EA034306FB44
:1004C00007F199420AD91CEB030306F1FF3080F0D3
:1004D0001F81994240F21C81023E63445B1AA4B220
:1004E000B3FBF8F008FB103344EA034400FB07F7C2
:1004F000A7420AD91CEB040400F1FF3380F00A8103
:10050000A74240F207816444023840EA0640E41BF7
:1005100000261DB1D4400023C5E900433146BDE8A3
:10052000F0878B4209D9002D00F0EF800026C5E945
:10053000000130463146BDE8F087B3FA83F6002E5D
:100540004AD18B4202D3824200F2F980841A61EBD5
:10055000030301209E46002DE0D0C5E9004EDDE7F3
:1005600002B9FFDEB2FA82F2002A40F09280A1EBDB
:100570000C014FEA1C471FFA8CFE0126200CB1FB30
:10058000F7F307FB131140EA01410EFB03F0884229
:1005900008D91CEB010103F1FF3802D2884200F2B6
:1005A000CB804346091AA4B2B1FBF7F007FB101148
:1005B00044EA01440EFB00FEA64508D91CEB0404E6
:1005C00000F1FF3102D2A64500F2BB800846A4EB41
:1005D0000E0440EA03409CE7C6F12007B34022FA2C
:1005E00007FC4CEA030C20FA07F401FA06F31C435B
:1005F000F9404FEA1C4900FA06F3B1FBF9F8200C68
:100600001FFA8CFE09FB181140EA014108FB0EF0AD
:10061000884202FA06F20BD91CEB010108F1FF3AFD
:1006200080F08880884240F28580A8F10208614409
:10063000091AA4B2B1FBF9F009FB101144EA014117
:1006400000FB0EFE8E4508D91CEB010100F1FF34C2
:100650006CD28E456AD90238614440EA0840A0FB5A
:100660000294A1EB0E01A142C846A64656D353D030
:100670005DB1B3EB080261EB0E0101FA07F722FA54
:1006800006F3F1401F43C5E9007100263146BDE87D
:10069000F087C2F12003D8400CFA02FC21FA03F3E0
:1006A000914001434FEA1C471FFA8CFEB3FBF7F061
:1006B00007FB10360B0C43EA064300FB0EF69E4286
:1006C00004FA02F408D91CEB030300F1FF382FD21F
:1006D0009E422DD9023863449B1B89B2B3FBF7F6C7
:1006E00007FB163341EA034106FB0EF38B4208D9A0
:1006F0001CEB010106F1FF3816D28B4214D9023EE1
:100700006144C91A46EA004638E72E46284605E7FE
:100710000646E3E61846F8E64B45A9D2B9EB0208CF
:1007200064EB0C0E0138A3E74646EAE7204694E75F
:100730004046D1E7D0467BE7023B614432E7304692
:1007400009E76444023842E7704700BF08B5026811
:10075000034B9A4200D008BD00F062FEFBE700BFE9
:100760000010004072B6FEE700B595B034220021BB
:1007700007A801F077FE00230293039304930593E7
:10078000069300931F4A116C41F080511164126C62
:1007900002F080520092009A01931B490A6822F4E9
:1007A000404242F480420A600A6802F440420192E8
:1007B000019A0222079201210A9110210B910D92B8
:1007C0000E930F914FF4A873109304231193129278
:1007D000139207A800F094FA80B90F230293022124
:1007E0000391002304934FF480520592069302A8CC
:1007F00000F0E2F820B915B05DF804FBFFF7B2FF96
:10080000FFF7B0FF003802400070004008B500F06C
:10081000EDFDFFF7A9FF01F08DFD00F02FF8FEE7D9
:1008200008B52021034800F07FFD142001F046F9AF
:10083000F7E700BF0000024000B589B0B02306937F
:100840000123059304930F23039302934FF48063D2
:100850000193064B009341F23423054A05490648AB
:1008600001F078FB002009B05DF804FBDC000020FB
:10087000210800088C2400082C00002008B500F096
:10088000BDFF08BDFEE7FEE7FEE7FEE7FEE77047B7
:1008900008B5024800F020FE08BD00BFDC040020BF
:1008A00000B583B0002100910C4B5A6C42F4804299
:1008B0005A645A6C02F480420092009A01911A6CB8
:1008C00042F080521A641B6C03F080530193019B29
:1008D000072000F033FD03B05DF804FB0038024050
:1008E00030B589B0044600230193214B1A6C42F0C5
:1008F00010021A641B6C03F010030193019B02A900
:1009000003A800F01FF9069BCBB900F00BF90346D2
:100910001848A0FB03239B0C013B1748174A0260B1
:1009200040F2E732C2604360002303618360836169
:1009300000F0F4FE054630B1284609B030BD00F0A5
:10094000F1F84300E4E70C4800F07EFD054600287E
:10095000F2D1362000F03CFD0F2C01D90125EBE748
:1009600000222146362000F0FBFC054B1C60E3E72B
:100970000038024083DE1B43DC04002000100040EE
:100980000400002000B583B0342300934FF480634B
:10099000064A0749074801F073FA10B103B05DF841
:1009A00004FB0448FFF748FFF8E700BF58050020A4
:1009B0009824000824050020002800F09B8070B5D2
:1009C0000D4604464F4B1B6803F00F038B4208D2C1
:1009D000CBB24C4A1370136803F00F038B4240F004
:1009E0008B80236813F0020F17D013F0040F04D08C
:1009F000454A936843F4E0539360236813F0080F6B
:100A000004D0414A936843F4604393603E4A93683C
:100A100023F0F003A1680B439360236813F0010FE8
:100A200032D06368012B21D09A1E012A25D9364A7B
:100A3000126812F0020F61D033498A6822F0030273
:100A400013438B6000F0F8FC06462F4B9B6803F0C5
:100A50000C036268B3EB820F16D000F0EDFC801B34
:100A600041F288339842F0D9032042E0264A1268C6
:100A700012F4003FE0D101203BE0234A126812F05B
:100A8000007FD9D1012034E01E4B1B6803F00F0317
:100A9000AB4207D9EAB21B4B1A701B6803F00F0375
:100AA000AB422DD1236813F0040F06D0164A936889
:100AB00023F4E053E1680B439360236813F0080FBD
:100AC00007D0114A936823F46043216943EAC103C4
:100AD000936000F055F80C4B9B68C3F303130B4A6B
:100AE000D35CD8400A4B18600A4B1868FFF7F8FE31
:100AF000002070BD012070470120FAE70120F8E7CF
:100B00000120F6E7003C024000380240AC24000817
:100B10000800002004000020014B1868704700BF47
:100B20000800002008B5FFF7F7FF044B9B68C3F3EC
:100B30008223034AD35CD84008BD00BF003802407E
:100B4000BC2400080F2303600B4B9A6802F00302D9
:100B500042609A6802F0F00282609A6802F4E05201
:100B6000C2609B68DB0803F4E0530361034B1B681E
:100B700003F00F030B60704700380240003C024056
:100B800008B55C4B9B6803F00C03082B07D00C2BBB
:100B90005BD0042B01D0584808BD5848FCE7554BA2
:100BA0005A6802F03F025B6813F4800F2AD0514B61
:100BB0005968C1F3881C4FEA4C11B1EB0C006EEB85
:100BC0000E0E4FEA8E1343EA90638101091A63EB1C
:100BD0000E03DB0043EA5173C90011EB0C0C43F127
:100BE0000003590200234FEA4C2041EADC51FFF791
:100BF0002BFC404B5B68C3F3014301335B00B0FB4C
:100C0000F3F0C9E73B4B5968C1F3881C4FEA4C111C
:100C1000B1EB0C006EEB0E0E4FEA8E1343EA9063BD
:100C20008101091A63EB0E03DB0043EA5173C9002B
:100C300011EB0C0C43F10003990200234FEA8C20C6
:100C400041EA9C51FFF700FCD3E72A4B5A6802F0B7
:100C50003F025B6813F4800F28D0264B5968C1F31C
:100C6000881C4FEA4C11B1EB0C006EEB0E0E4FEAF4
:100C70008E1343EA90638101091A63EB0E03DB00D4
:100C800043EA5173C90011EB0C0C43F10003590204
:100C900000234FEA4C2041EADC51FFF7D5FB154B0E
:100CA0005B68C3F30273B0FBF3F075E7114B59684F
:100CB000C1F3881C4FEA4C11B1EB0C006EEB0E0E29
:100CC0004FEA8E1343EA90638101091A63EB0E0326
:100CD000DB0043EA5173C90011EB0C0C43F1000334
:100CE000990200234FEA8C2041EA9C51FFF7ACFBAC
:100CF000D5E700BF003802400024F40000127A005B
:100D0000002800F0018270B582B00446036813F039
:100D1000010F41D0994B9B6803F00C03042B32D098
:100D2000964B9B6803F00C03082B27D0934B9B68D2
:100D300003F00C030C2B59D06368B3F5803F5BD0F4
:100D4000B3F5A02F5ED08D4B1A6822F480321A6062
:100D50001A6822F480221A606368002B5CD000F0CD
:100D60006BFB0546854B1B6813F4003F14D100F064
:100D700063FB401B6428F5D90320CCE17F4B5B6803
:100D800013F4800FD2D07D4B1B6813F4003F03D0C7
:100D90006368002B00F0BA81236813F0020F60D063
:100DA000764B9B6813F00C0F4AD0744B9B6803F092
:100DB0000C03082B3FD0714B9B6803F00C030C2BEA
:100DC00069D0E368002B75D06D4B01221A6000F0EA
:100DD00033FB0546694B1B6813F0020F61D100F02D
:100DE0002BFB401B0228F5D9032094E1634B5B6881
:100DF00013F4800FA0D0C6E7604A136843F4803331
:100E00001360A9E75D4B1A6842F480221A601A68E1
:100E100042F480321A609FE700F00EFB0546574B04
:100E20001B6813F4003FB7D000F006FB401B64289A
:100E3000F5D903206FE1514B5B6813F4800FBAD1F1
:100E40004E4B1B6813F0020F03D0E368012B40F0F8
:100E50005F814A4A136823F0F803216943EAC1031A
:100E60001360236813F0080F49D06369002B33D057
:100E7000434B0122C3F8802E00F0DEFA05463F4BBB
:100E80005B6F13F0020F3AD100F0D6FA401B022834
:100E9000F5D903203FE1394B5B6813F4800F90D103
:100EA000CEE7364A136823F0F803216943EAC10309
:100EB0001360D6E7324B00221A6000F0BDFA0546F7
:100EC0002E4B1B6813F0020FCBD000F0B5FA401B7D
:100ED0000228F5D903201EE1294B0022C3F8802EF9
:100EE00000F0AAFA0546254B5B6F13F0020F06D0FF
:100EF00000F0A2FA401B0228F5D903200BE1236879
:100F000013F0040F76D01D4B1B6C13F0805F33D1B0
:100F100000230193194B1A6C42F080521A641B6C27
:100F200003F080530193019B0125164B1B6813F4BA
:100F3000807F29D0A368012B3AD0052B3ED00F4BE0
:100F40001A6F22F001021A671A6F22F004021A6760
:100F5000A368002B3CD000F06FFA0646074B1B6FCE
:100F600013F0020F45D100F067FA801B41F288337D
:100F70009842F3D90320CEE00025D6E7003802409E
:100F800000004742007000406B4A136843F48073CE
:100F9000136000F051FA0646674B1B6813F4807F1C
:100FA000C8D100F049FA801B0228F5D90320B2E02D
:100FB000624A136F43F001031367C9E75F4B1A6F6F
:100FC00042F004021A671A6F42F001021A67BFE783
:100FD00000F032FA0646594B1B6F13F0020F08D08F
:100FE00000F02AFA801B41F288339842F3D903209B
:100FF00091E0EDB9A369002B00F08C804F4A926814
:1010000002F00C02082A54D0022B17D04C4B0022BD
:101010001A6600F011FA0446484B1B6813F0007F73
:1010200045D000F009FA001B0228F5D9032072E030
:10103000424A136C23F080531364DBE7404B0022D9
:101040001A6600F0F9F905463C4B1B6813F0007F67
:1010500006D000F0F1F9401B0228F5D903205AE030
:10106000E369226A1343626A43EA8213A26A52085E
:10107000013A43EA0243E26A43EA0263226B43EA2B
:1010800002732E4A53602E4B01221A6600F0D4F9E7
:1010900004462A4B1B6813F0007F06D100F0CCF900
:1010A000001B0228F5D9032035E0002033E00020A2
:1010B00031E0012B31D0214B5B6803F48001E26900
:1010C00091422CD103F03F02216A8A4229D1616A00
:1010D00047F6C0721A40B2EB811F24D103F44031AD
:1010E000A26A5208013AB1EB024F1ED103F07062BE
:1010F000E16AB2EB016F1AD103F0E043226BB3EB6C
:10110000027F16D1002006E001207047012002E096
:10111000012000E0002002B070BD0120FBE70120AB
:10112000F9E70120F7E70120F5E70120F3E70120C7
:10113000F1E70120EFE700BF0070004000380240F7
:101140000000474200230F2B00F2DE8070B582B012
:1011500060E085685E000324B44025EA0405CC689D
:10116000B4402C438460456825EA02054C68C4F30A
:1011700000129A402A4342605AE0DC08083450F8D2
:10118000246003F0070295000F22AA4026EA020E0F
:101190000A69AA4042EA0E0240F824205CE00622D6
:1011A00000E0002202FA0EF22A430234574D45F8BD
:1011B0002420574A94686FEA0C0224EA0C054E6812
:1011C00016F4801F01D04CEA0405514CA560E46878
:1011D00002EA04054E6816F4001F01D04CEA04052B
:1011E0004B4CE560646802EA04054E6816F4003F63
:1011F00001D04CEA0405464C6560246822404D68E5
:1012000015F4803F01D04CEA0402414C22600133C6
:101210000F2B77D801229A400C6804EA020C32EABC
:101220000404F4D14C6804F00304013C012C90D96F
:101230004A6802F00302032A09D0C4685D00032251
:10124000AA4024EA02048A68AA402243C2604A688B
:1012500002F00302022A90D004684FEA430E0322F0
:1012600002FA0EF224EA02044A6802F0030202FAC9
:101270000EF2224302604A6812F4403FC7D00022B7
:101280000192244A546C44F480445464526C02F435
:1012900080420192019A9C08A51C1C4A52F82550D4
:1012A00003F003024FEA820E0F2202FA0EF225EA41
:1012B0000205194A90423FF474AF02F580629042F1
:1012C00016D002F58062904214D002F580629042FE
:1012D00012D002F58062904210D002F580629042F6
:1012E0000ED002F5806290423FF459AF072259E7D1
:1012F000012257E7022255E7032253E7042251E770
:1013000005224FE702B070BD704700BF00380140B2
:10131000003C014000380240000002400AB18161F7
:101320007047090481617047436901EA030221EAB9
:10133000030141EA0241816170470000074AD36816
:1013400023F4E0631B041B0C000200F4E060034381
:1013500043F0BF6343F40033D360704700ED00E017
:1013600000B5194BDB68C3F30223C3F1070CBCF1D2
:10137000040F28BF4FF0040C03F1040EBEF1060F5A
:1013800018D9033B4FF0FF3E0EFA0CFC21EA0C018A
:1013900099400EFA03F322EA0303194300280BDBFA
:1013A0000901C9B200F1604000F5614080F8001306
:1013B0005DF804FB0023E5E700F00F000901C9B266
:1013C000024B1954F4E700BF00ED00E014ED00E01B
:1013D000002807DB00F01F02400901239340024A66
:1013E00042F82030704700BF00E100E008B50B4B29
:1013F0001A6842F400721A601A6842F480621A6035
:101400001A6842F480721A600320FFF797FF0020E9
:10141000FFF766FAFFF744FA002008BD003C0240DF
:10142000034A1168034B1B780B441360704700BFDD
:101430005809002000000020014B1868704700BFC9
:10144000580900207047000090F83D30DBB2012BB6
:1014500037D1022380F83D300268D36843F001039E
:10146000D3600368194A934220D0B3F1804F1DD056
:10147000A2F57C42934219D002F58062934215D0C6
:1014800002F58062934211D002F5784293420DD06A
:1014900002F57052934209D0A2F59432934205D0DE
:1014A0001A6842F001021A60002070479A6802F040
:1014B0000702062A07D01A6842F001021A600020CB
:1014C0007047012070470020704700BF00000140B6
:1014D000704770477047704710B5044603681A6933
:1014E00012F0020F11D0DA6812F0020F0DD06FF077
:1014F00002021A610123037703689B6913F0030F4B
:1015000070D0FFF7E6FF0023237723681A6912F0F3
:10151000040F12D0DA6812F0040F0ED06FF004023C
:101520001A610223237723689B6913F4407F5FD0FD
:101530002046FFF7CEFF0023237723681A6912F0B5
:10154000080F12D0DA6812F0080F0ED06FF0080200
:101550001A61042323772368DB6913F0030F4ED04D
:101560002046FFF7B6FF0023237723681A6912F09D
:10157000100F12D0DA6812F0100F0ED06FF01002B8
:101580001A61082323772368DB6913F4407F3DD079
:101590002046FFF79EFF0023237723681A6912F085
:1015A000010F03D0DA6812F0010F36D123681A69EF
:1015B00012F0800F03D0DA6812F0800F34D1236864
:1015C0001A6912F0400F03D0DA6812F0400F32D1DE
:1015D00023681A6912F0200F03D0DA6812F0200F86
:1015E00030D110BDFFF774FF2046FFF773FF8AE785
:1015F0002046FFF76DFF2046FFF76CFF9BE7204674
:10160000FFF766FF2046FFF765FFACE72046FFF7D0
:101610005FFF2046FFF75EFFBDE76FF001021A6132
:101620002046FFF793F8C1E76FF080021A61204669
:1016300000F0A1F8C3E76FF040021A612046FFF7FF
:101640004AFFC5E76FF020021A61204600F092F8C9
:10165000C7E700000368304A904212D0B0F1804FD3
:101660000FD0A2F57C4290420BD002F580629042EE
:1016700007D002F58062904203D002F57842904292
:1016800003D123F070034A681343234A90422AD0BF
:10169000B0F1804F27D0A2F57C42904223D002F5D2
:1016A000806290421FD002F5806290421BD002F50A
:1016B0007842904217D002F57052904213D002F552
:1016C000806290420FD002F5806290420BD0A2F56A
:1016D0009832904207D002F58062904203D002F522
:1016E0008062904203D123F44073CA68134323F00D
:1016F00080034A69134303608B68C3620B6883628B
:10170000054B984203D003F58063984201D10B69E1
:1017100003630123436170470000014040B310B5EB
:10172000044690F83D30F3B1022384F83D30214661
:1017300051F8040BFFF78EFF012384F8463084F83C
:101740003E3084F83F3084F8403084F8413084F8EB
:10175000423084F8433084F8443084F8453084F8CB
:101760003D30002010BD80F83C30FFF76BFEDBE71A
:101770000120704770477047034AD2F8883043F41D
:101780007003C2F88830704700ED00E008B500F043
:1017900039F900F093FC00230C4A13600C4A1360E3
:1017A0000C4A13600C4A13600C4A13600C4A136015
:1017B0000C4A13600C4A13600C4A13600C4A136005
:1017C0000C4A13600C4A136008BD00BF8C0900204E
:1017D0008809002084090020800900207009002069
:1017E0006C090020600900205C09002068090020C5
:1017F000640900207C0900207809002010B50F4BF7
:101800001B6813F10F3F0CD10C4C4FF0F0332360E9
:101810000B4B1868FFF7B6F800232360FEF738FD7E
:1018200010BD064B4FF0F0321A60FEF7F1FCFFF7E7
:10183000ADFF044A136801331360E5E70C00002094
:1018400074090020AC090020F8B504460F4616467E
:101850001D463422002100F005FE25F003036760D9
:10186000A661E36126616661A3F10802A26002221B
:10187000E260334443F8044CA3F1080243F8086CD7
:1018800032600F4B736000232362EFF3108272B655
:101890000C4B23600C4B1B6853B90C490C60E46281
:1018A0002463013308490B6082F310880020F8BDDF
:1018B00006490968086B0C63C4622063E162F0E7C3
:1018C000EEEEFFFF455459426409002068090020EC
:1018D0002DE9F84F04468A46914698460A9D0B9E8C
:1018E0000C9FDDF838B03246EF21284600F0BAFDF3
:1018F000B0220021204600F0B5FDC4F828A0C4F8AD
:101900004490C4F84880E5606661E762C4F894706A
:10191000C4F818B0C4F81CB02023C4F89C30013EB1
:10192000354425610D9B9F422FD0032323632D4B0C
:101930006365A4652C492046FEF70AFDEFF310818C
:1019400072B62A4B23602A4B1B6813BB294A1460CA
:10195000C4F88840C4F88C400133254A1360264AF5
:101960001368013313600F9B012B2BD1EFF305821A
:10197000224B1B681343B3F1F03F17D3204B1D6874
:10198000F5B1EE6BEB6AEB6312E0E763C4F89870B5
:10199000CBE7184A1268D2F88C00C2F88C40C0F825
:1019A0008840C4F88C00C4F88820D5E70026354666
:1019B00081F31088204600F0E3F885B1EE630EE075
:1019C0000026F5E781F31088EFF3108172B60A4A1A
:1019D0001368013B136081F3108800F0B3F8002016
:1019E000BDE8F88F4D1E0008691A0008445248549B
:1019F0009409002098090020AC0900200C00002068
:101A0000A009002010B500240D4B1C600D4B1C607C
:101A10000D4B1C600D4B20221A60802221460C4881
:101A200000F020FD0B4B1C600B4B1C600B4B1C6033
:101A30000B4B1C600B4A136843F08573136010BD99
:101A40009C090020A0090020300A0020A4090020E1
:101A5000B00900209809002094090020AC0900205A
:101A6000A80900209009002010B5114B1C68636C78
:101A7000A06C98470F4B1B680BB120469847EFF3BB
:101A8000108172B601232363A3630023E3640A4A2F
:101A900013680133136081F31088EFF3148323F08C
:101AA000040383F31488204600F0FAF810BD00BF49
:101AB0009C090020A8090020AC09002010B5EFF314
:101AC000108272B61B4B1C6864B1EFF305831A4990
:101AD00009680B430AD1194B9C420BD070B982F3B1
:101AE000108806E082F31088132002E082F3108849
:101AF000132010BD82F310881320FAE7104B1B68E7
:101B00001BB182F310881320F3E70423236301231E
:101B1000A3630023C4F88430E06409490B680133EF
:101B20000B6082F31088204600F0BAF8D4F88400E5
:101B3000DFE700BF9C0900200C000020E80A00201D
:101B4000AC0900200B4B1B689BB90B4B1A680B4B65
:101B50001B689A420DD04FF0E0234FF08052C3F83B
:101B6000042DEFF3058323B9EFF3108362B683F3FB
:101B700010887047AC0900209C090020A0090020B3
:101B800038B50446EFF3108572B6436EDBB14C30C6
:101B900000F028FB3C4A1368013B1360A36B002B49
:101BA00063D1236B002B46D0636B002B3FD12363A3
:101BB000E26A364B53F8223043B15A6A14625C62CF
:101BC0006262236237E00023C364E3E72F4B43F8EC
:101BD000224024626462012303FA02F12C48036864
:101BE0000B4303602B4B1B68934224D9294B1A608B
:101BF000294B1B68C3B1DB6B93421CD9264B1C607D
:101C000085F31088204B1B6873BB4FF0E0234FF027
:101C10008052C3F8042DEFF305832BBBEFF3108341
:101C200062B683F310881FE01B4B1C6003E00023A7
:101C3000636303232363194B1B6885F31088164ADB
:101C400012689A4210D0104B1B686BB94FF0E0231A
:101C50004FF08052C3F8042DEFF3058323B9EFF35F
:101C6000108362B683F3108838BD236B012BE2D05A
:101C7000022BE0D0636B13B9A3632363DBE700237C
:101C8000636303232363D6E7AC090020B009002077
:101C9000300A0020A4090020A00900209C0900208F
:101CA00070B504464A4B1D68EFF3108672B6854244
:101CB0001ED0484A1368013B1360A36B012B24D04C
:101CC00086F31088444B1B68AB4210D0414B1B6815
:101CD0006BB94FF0E0234FF08052C3F8042DEFF3BF
:101CE000058323B9EFF3108362B683F3108870BDC8
:101CF000C36C13B1B3F1FF3F03D1E269374B1A60F4
:101D0000D7E74C3000F042FAF7E70023A363E26A1A
:101D1000236A9C422CD0616A59620B62304951F8A7
:101D20002210A14220D02C4B1B68A342C8D12D4BBE
:101D30001A682B4B53F82220274B1A6086F3108821
:101D4000244B1B68002BD2D14FF0E0234FF0805280
:101D5000C3F8042DEFF30583002BC8D1EFF31083F4
:101D600062B683F31088C2E71D4941F82230DAE7F2
:101D70001B4B002143F82210012393401A490A68A3
:101D800022EA03020A6032B192FAA2F2B2FA82F2B5
:101D9000144B1A60C7E7134B20221A600E4B002227
:101DA0001A6086F310880B4B1B68002B9FD14FF0F5
:101DB000E0234FF08052C3F8042DEFF30583002B8E
:101DC00095D1EFF3108362B683F310888FE700BFDD
:101DD0009C090020AC090020A0090020980F0020D9
:101DE000B0090020A4090020300A0020114B1B6814
:101DF000EFF3108272B610490020086063B1196BCE
:101E000051B9D96999610D480160196A994203D0A5
:101E1000D86ADB6B984202D082F310887047084B77
:101E200043F820100749096853F82110064B196040
:101E3000F2E700BF9C090020480A0020980F00200C
:101E4000B0090020A4090020A009002008B5EFF384
:101E5000108272B6036B042B07D0836ED0F8AC10DF
:101E600082F3108803B1984708BD04490B68013319
:101E70000B6082F31088FFF783FEF5E7AC090020C2
:101E8000002850D02DE9F843894617469846064663
:101E9000089B342B02D00220BDE8F883EFF31081B9
:101EA00072B6264A13680133136081F31088244BFD
:101EB0001C680020234D2D68854204D9B44202D00D
:101EC000E46A0130F6E7EFF3108172B61B4A13683B
:101ED000013B136081F31088FFF734FEB44224D035
:101EE0002FB3B8F1630F24D9174B1A68174B9A42D6
:101EF00017D00020EFF30583154A1268134307D06B
:101F0000EFF30582124B1B681343B3F1F03F12D37A
:101F10000028C1D143463A4649463046FFF794FC73
:101F2000BAE71320E6E7022070470220B4E7032057
:101F3000B2E70520B0E71320AEE700BFAC090020F0
:101F400068090020640900209C090020E80A00209C
:101F50000C0000202DE9F04786B00E9E00287DD0B1
:101F6000894690469A460746149BB02B03D00E2014
:101F700006B0BDE8F087EFF3108172B6404A1368EF
:101F80000133136081F310883E4B1C680F9B5A1E6F
:101F900032440020014602E0D4F8884001303A4B38
:101FA0001B68834212D9BC4210D079B9E568B542AA
:101FB00004D82369B34201D9012100269542EBD808
:101FC00023699342E8D901210026E5E7EFF3108168
:101FD00072B62B4A1368013B136081F31088FFF738
:101FE000B1FDBC423CD0002E3CD0B8F1000F3BD03C
:101FF0000F9BC72B3AD9109B1F2B39D8119A9342AC
:1020000038D3139B012B37D8204B1A68204B9A42A8
:1020100022D00020EFF305831E4A1268134307D035
:10202000EFF305821B4B1B681343B3F1F03F25D33D
:1020300000289DD1139B0593129B0493119B03933E
:10204000109B02930F9B01930096534642464946CC
:102050003846FFF73DFC8BE71320DBE70E2087E7D0
:102060000E2085E7032083E7032081E705207FE733
:102070000F207DE718207BE7102079E7132077E712
:10208000AC09002098090020940900209C09002038
:10209000E80A00200C00002008B5EFF3108172B6AA
:1020A000044A13680133136081F310880248FFF774
:1020B00067FD08BDAC090020E80A002030B587B0F4
:1020C00000241F4B1C601F4B1C601F4B1C601F4BD0
:1020D0001C601F4B1C601F4D80222146284600F0CB
:1020E000C1F91D4B1D601D4B1D601D4B05F17C0290
:1020F0001A6080351D601B4B1B4A1A601B4B4FF446
:1021000080621A601A4B1C60194B1B6800220592F2
:10211000049203930293154B1B680193114B1B68A8
:102120000093144B144A15491548FFF7D1FB0028BA
:10213000EAD10023134A1360134A136007B030BD7D
:10214000E40A0020980F0020480A0020440A0020DA
:102150004C0A0020500A0020D40A0020400A002027
:10216000D00A0020E00A0020980B0020DC0A0020A2
:10217000D80A00204D49544115220008C424000803
:10218000E80A00203C0A0020380A0020036823B136
:10219000B3F1FF3F01D0826902B17047202B15D8FF
:1021A000013B0D4A126802EB83030C4A12689A4203
:1021B00003D89B1A0A4A126813441A6842B151693B
:1021C00008615061026141618361E6E71F23E8E72E
:1021D000006140611860F7E7400A0020D00A002043
:1021E000D40A0020836953B10269904208D0416942
:1021F00051610A611968814208D0002383617047E8
:102200001A688242F9D100221A60F6E793611A60D7
:10221000F3E700003F4B984200D0704770B582B0A2
:10222000002556E03C4B1A683C4B1A6065E0019172
:102230002BE0A368E56861682160002930D0C4F80C
:1022400018D02461009436490C6082F310880BB1D9
:1022500028469847EFF3108672B6314B00221A6079
:10226000009BA3421FD086F31088EFF3108272B652
:10227000019CECB12369002100919C42D7D0616997
:1022800059610B6101A9996101932368202BD0D971
:10229000203B2360C4F818D0246100940023D2E7C7
:1022A0000021A161CFE7A2612046FFF76FFFDAE7C7
:1022B0001C4B1B68002B29D11B48032303630123FC
:1022C00083631A490B6801330B6082F31088FFF7B0
:1022D000E7FCEFF3108172B6104B1A681368019394
:1022E0000BB101A89861002313600C4A13680433F2
:1022F00013600F4A1268934294D00A4B00221A606E
:1023000081F31088EFF3108272B6B1E782F3108880
:10231000DFE700BF4D495441D40A0020400A0020A5
:102320004C0A0020440A0020E80A0020AC090020E2
:10233000D00A002030B589B0002403940494059499
:102340000694079400941D4B1A6B42F004021A6322
:102350001A6B02F004020092009A01941A6B42F088
:1023600080021A631A6B02F080020192019A0294B1
:102370001A6B42F001021A631B6B03F00103029314
:10238000029B0F4D224620212846FEF7C7FF4FF43F
:10239000005303934FF404130493059403A90948CD
:1023A000FEF7D0FE202303930123049305940694A3
:1023B00003A92846FEF7C6FE09B030BD003802402A
:1023C0000000024000080240DFF834D00D480E49FA
:1023D0000E4A002302E0D458C4500433C4188C427F
:1023E000F9D30B4A0B4C002301E013600432A242E4
:1023F000FBD3FFF7C1F900F011F8FEF707FA7047B9
:10240000000002200000002010000020E824000846
:10241000100000209C0F0020FEE7000070B50D4D5D
:102420000D4C641BA4100026A64209D10B4D0C4C88
:1024300000F020F8641BA4100026A64205D170BD50
:1024400055F8043B98470136EEE755F8043B9847AA
:102450000136F2E7E0240008E0240008E024000848
:10246000E424000802440346934200D1704703F875
:10247000011BF9E7F8B500BFF8BC08BC9E467047E1
:0C248000F8B500BFF8BC08BC9E467047D1
:10248C006D79207468726561640000005478204195
:10249C007070206D656D6F727920706F6F6C0000BD
:1024AC0000000000000000000102030406070809F8
:1024BC00000000000102030453797374656D20540D
:0C24CC00696D65722054687265616400DF
:0824D800A0DFFF7F01000000FE
:0424E000F5010008FA
:0424E400D10100081A
:1024E80001000000100000000024F400F0F0F0F0FB
:04000005080023C903
:00000001FF
